{
  "_format": "hh-sol-artifact-1",
  "contractName": "MemberRole",
  "sourceName": "contracts/MemberRole.sol",
  "abi": [
    {
      "inputs": [],
      "stateMutability": "nonpayable",
      "type": "constructor"
    },
    {
      "anonymous": false,
      "inputs": [
        {
          "indexed": false,
          "internalType": "address",
          "name": "member",
          "type": "address"
        },
        {
          "indexed": false,
          "internalType": "uint256",
          "name": "activationTime",
          "type": "uint256"
        },
        {
          "indexed": false,
          "internalType": "string",
          "name": "roleType",
          "type": "string"
        }
      ],
      "name": "RoleAdded",
      "type": "event"
    },
    {
      "anonymous": false,
      "inputs": [
        {
          "indexed": false,
          "internalType": "address",
          "name": "member",
          "type": "address"
        },
        {
          "indexed": false,
          "internalType": "bool",
          "name": "newRole",
          "type": "bool"
        },
        {
          "indexed": false,
          "internalType": "uint256",
          "name": "timestamp",
          "type": "uint256"
        }
      ],
      "name": "StateChanged",
      "type": "event"
    },
    {
      "inputs": [
        {
          "internalType": "address",
          "name": "_member",
          "type": "address"
        },
        {
          "internalType": "uint256",
          "name": "_roleType",
          "type": "uint256"
        }
      ],
      "name": "addRole",
      "outputs": [],
      "stateMutability": "nonpayable",
      "type": "function"
    },
    {
      "inputs": [
        {
          "internalType": "string",
          "name": "_roleType",
          "type": "string"
        }
      ],
      "name": "addRoleType",
      "outputs": [],
      "stateMutability": "nonpayable",
      "type": "function"
    },
    {
      "inputs": [
        {
          "internalType": "uint256",
          "name": "",
          "type": "uint256"
        }
      ],
      "name": "addresses",
      "outputs": [
        {
          "internalType": "address",
          "name": "",
          "type": "address"
        }
      ],
      "stateMutability": "view",
      "type": "function"
    },
    {
      "inputs": [
        {
          "internalType": "address",
          "name": "_member",
          "type": "address"
        },
        {
          "internalType": "bool",
          "name": "_newState",
          "type": "bool"
        }
      ],
      "name": "changeRoleStatus",
      "outputs": [],
      "stateMutability": "nonpayable",
      "type": "function"
    },
    {
      "inputs": [],
      "name": "getRoleTypes",
      "outputs": [
        {
          "internalType": "string[]",
          "name": "",
          "type": "string[]"
        }
      ],
      "stateMutability": "view",
      "type": "function"
    },
    {
      "inputs": [],
      "name": "membersCount",
      "outputs": [
        {
          "internalType": "uint256",
          "name": "",
          "type": "uint256"
        }
      ],
      "stateMutability": "view",
      "type": "function"
    },
    {
      "inputs": [
        {
          "internalType": "uint256",
          "name": "",
          "type": "uint256"
        }
      ],
      "name": "roleTypes",
      "outputs": [
        {
          "internalType": "string",
          "name": "",
          "type": "string"
        }
      ],
      "stateMutability": "view",
      "type": "function"
    },
    {
      "inputs": [],
      "name": "roleTypesCount",
      "outputs": [
        {
          "internalType": "uint256",
          "name": "",
          "type": "uint256"
        }
      ],
      "stateMutability": "view",
      "type": "function"
    },
    {
      "inputs": [
        {
          "internalType": "address",
          "name": "",
          "type": "address"
        }
      ],
      "name": "userRole",
      "outputs": [
        {
          "internalType": "uint256",
          "name": "activationTime",
          "type": "uint256"
        },
        {
          "internalType": "bool",
          "name": "isActive",
          "type": "bool"
        },
        {
          "internalType": "string",
          "name": "roleType",
          "type": "string"
        }
      ],
      "stateMutability": "view",
      "type": "function"
    }
  ],
  "bytecode": "0x608060405234801561001057600080fd5b50336000806101000a81548173ffffffffffffffffffffffffffffffffffffffff021916908373ffffffffffffffffffffffffffffffffffffffff160217905550611947806100606000396000f3fe608060405234801561001057600080fd5b50600436106100935760003560e01c8063968923a411610066578063968923a41461012057806396c61cb21461013c5780639a496a3c1461015a578063be09174d14610178578063edf26d9b146101a857610093565b8063297f9af0146100985780634caa94db146100b6578063534f5680146100d25780637fde1c8a14610104575b600080fd5b6100a06101d8565b6040516100ad9190610bfa565b60405180910390f35b6100d060048036038101906100cb9190610cbf565b6101de565b005b6100ec60048036038101906100e79190610cff565b61048e565b6040516100fb93929190610dcb565b60405180910390f35b61011e60048036038101906101199190610e35565b61054d565b005b61013a60048036038101906101359190610faa565b610867565b005b610144610989565b60405161015191906110ff565b60405180910390f35b610162610af0565b60405161016f9190610bfa565b60405180910390f35b610192600480360381019061018d9190611121565b610af6565b60405161019f919061114e565b60405180910390f35b6101c260048036038101906101bd9190611121565b610ba2565b6040516101cf919061117f565b60405180910390f35b60045481565b60008054906101000a900473ffffffffffffffffffffffffffffffffffffffff1673ffffffffffffffffffffffffffffffffffffffff163373ffffffffffffffffffffffffffffffffffffffff161461026c576040517f08c379a0000000000000000000000000000000000000000000000000000000008152600401610263906111e6565b60405180910390fd5b600073ffffffffffffffffffffffffffffffffffffffff168273ffffffffffffffffffffffffffffffffffffffff16036102db576040517f08c379a00000000000000000000000000000000000000000000000000000000081526004016102d290611252565b60405180910390fd5b6000600360008473ffffffffffffffffffffffffffffffffffffffff1673ffffffffffffffffffffffffffffffffffffffff1681526020019081526020016000206000015403610360576040517f08c379a0000000000000000000000000000000000000000000000000000000008152600401610357906112e4565b60405180910390fd5b801515600360008473ffffffffffffffffffffffffffffffffffffffff1673ffffffffffffffffffffffffffffffffffffffff16815260200190815260200160002060010160009054906101000a900460ff161515036103f5576040517f08c379a00000000000000000000000000000000000000000000000000000000081526004016103ec90611376565b60405180910390fd5b80600360008473ffffffffffffffffffffffffffffffffffffffff1673ffffffffffffffffffffffffffffffffffffffff16815260200190815260200160002060010160006101000a81548160ff0219169083151502179055507fb965fe859adbfcaf277bb9d21a5de534aa40f5a06a58dbf224de25d789b063a982824260405161048293929190611396565b60405180910390a15050565b60036020528060005260406000206000915090508060000154908060010160009054906101000a900460ff16908060020180546104ca906113fc565b80601f01602080910402602001604051908101604052809291908181526020018280546104f6906113fc565b80156105435780601f1061051857610100808354040283529160200191610543565b820191906000526020600020905b81548152906001019060200180831161052657829003601f168201915b5050505050905083565b60008054906101000a900473ffffffffffffffffffffffffffffffffffffffff1673ffffffffffffffffffffffffffffffffffffffff163373ffffffffffffffffffffffffffffffffffffffff16146105db576040517f08c379a00000000000000000000000000000000000000000000000000000000081526004016105d2906111e6565b60405180910390fd5b600073ffffffffffffffffffffffffffffffffffffffff168273ffffffffffffffffffffffffffffffffffffffff160361064a576040517f08c379a000000000000000000000000000000000000000000000000000000000815260040161064190611479565b60405180910390fd5b60405180606001604052804281526020016001151581526020016001838154811061067857610677611499565b5b90600052602060002001805461068d906113fc565b80601f01602080910402602001604051908101604052809291908181526020018280546106b9906113fc565b80156107065780601f106106db57610100808354040283529160200191610706565b820191906000526020600020905b8154815290600101906020018083116106e957829003601f168201915b5050505050815250600360008473ffffffffffffffffffffffffffffffffffffffff1673ffffffffffffffffffffffffffffffffffffffff1681526020019081526020016000206000820151816000015560208201518160010160006101000a81548160ff021916908315150217905550604082015181600201908161078c9190611674565b509050506002829080600181540180825580915050600190039060005260206000200160009091909190916101000a81548173ffffffffffffffffffffffffffffffffffffffff021916908373ffffffffffffffffffffffffffffffffffffffff1602179055506004600081548092919061080690611775565b91905055507f2d11a6c31a685efcee07cc703c683f35bd414e7dd09aeee874fe401bab830f3a82426001848154811061084257610841611499565b5b9060005260206000200160405161085b93929190611841565b60405180910390a15050565b60008054906101000a900473ffffffffffffffffffffffffffffffffffffffff1673ffffffffffffffffffffffffffffffffffffffff163373ffffffffffffffffffffffffffffffffffffffff16146108f5576040517f08c379a00000000000000000000000000000000000000000000000000000000081526004016108ec906111e6565b60405180910390fd5b6000815103610939576040517f08c379a0000000000000000000000000000000000000000000000000000000008152600401610930906118f1565b60405180910390fd5b6005600081548092919061094c90611775565b91905055506001819080600181540180825580915050600190039060005260206000200160009091909190915090816109859190611674565b5050565b606060008054906101000a900473ffffffffffffffffffffffffffffffffffffffff1673ffffffffffffffffffffffffffffffffffffffff163373ffffffffffffffffffffffffffffffffffffffff1614610a19576040517f08c379a0000000000000000000000000000000000000000000000000000000008152600401610a10906111e6565b60405180910390fd5b6001805480602002602001604051908101604052809291908181526020016000905b82821015610ae7578382906000526020600020018054610a5a906113fc565b80601f0160208091040260200160405190810160405280929190818152602001828054610a86906113fc565b8015610ad35780601f10610aa857610100808354040283529160200191610ad3565b820191906000526020600020905b815481529060010190602001808311610ab657829003601f168201915b505050505081526020019060010190610a3b565b50505050905090565b60055481565b60018181548110610b0657600080fd5b906000526020600020016000915090508054610b21906113fc565b80601f0160208091040260200160405190810160405280929190818152602001828054610b4d906113fc565b8015610b9a5780601f10610b6f57610100808354040283529160200191610b9a565b820191906000526020600020905b815481529060010190602001808311610b7d57829003601f168201915b505050505081565b60028181548110610bb257600080fd5b906000526020600020016000915054906101000a900473ffffffffffffffffffffffffffffffffffffffff1681565b6000819050919050565b610bf481610be1565b82525050565b6000602082019050610c0f6000830184610beb565b92915050565b6000604051905090565b600080fd5b600080fd5b600073ffffffffffffffffffffffffffffffffffffffff82169050919050565b6000610c5482610c29565b9050919050565b610c6481610c49565b8114610c6f57600080fd5b50565b600081359050610c8181610c5b565b92915050565b60008115159050919050565b610c9c81610c87565b8114610ca757600080fd5b50565b600081359050610cb981610c93565b92915050565b60008060408385031215610cd657610cd5610c1f565b5b6000610ce485828601610c72565b9250506020610cf585828601610caa565b9150509250929050565b600060208284031215610d1557610d14610c1f565b5b6000610d2384828501610c72565b91505092915050565b610d3581610c87565b82525050565b600081519050919050565b600082825260208201905092915050565b60005b83811015610d75578082015181840152602081019050610d5a565b60008484015250505050565b6000601f19601f8301169050919050565b6000610d9d82610d3b565b610da78185610d46565b9350610db7818560208601610d57565b610dc081610d81565b840191505092915050565b6000606082019050610de06000830186610beb565b610ded6020830185610d2c565b8181036040830152610dff8184610d92565b9050949350505050565b610e1281610be1565b8114610e1d57600080fd5b50565b600081359050610e2f81610e09565b92915050565b60008060408385031215610e4c57610e4b610c1f565b5b6000610e5a85828601610c72565b9250506020610e6b85828601610e20565b9150509250929050565b600080fd5b600080fd5b7f4e487b7100000000000000000000000000000000000000000000000000000000600052604160045260246000fd5b610eb782610d81565b810181811067ffffffffffffffff82111715610ed657610ed5610e7f565b5b80604052505050565b6000610ee9610c15565b9050610ef58282610eae565b919050565b600067ffffffffffffffff821115610f1557610f14610e7f565b5b610f1e82610d81565b9050602081019050919050565b82818337600083830152505050565b6000610f4d610f4884610efa565b610edf565b905082815260208101848484011115610f6957610f68610e7a565b5b610f74848285610f2b565b509392505050565b600082601f830112610f9157610f90610e75565b5b8135610fa1848260208601610f3a565b91505092915050565b600060208284031215610fc057610fbf610c1f565b5b600082013567ffffffffffffffff811115610fde57610fdd610c24565b5b610fea84828501610f7c565b91505092915050565b600081519050919050565b600082825260208201905092915050565b6000819050602082019050919050565b600082825260208201905092915050565b600061103b82610d3b565b611045818561101f565b9350611055818560208601610d57565b61105e81610d81565b840191505092915050565b60006110758383611030565b905092915050565b6000602082019050919050565b600061109582610ff3565b61109f8185610ffe565b9350836020820285016110b18561100f565b8060005b858110156110ed57848403895281516110ce8582611069565b94506110d98361107d565b925060208a019950506001810190506110b5565b50829750879550505050505092915050565b60006020820190508181036000830152611119818461108a565b905092915050565b60006020828403121561113757611136610c1f565b5b600061114584828501610e20565b91505092915050565b600060208201905081810360008301526111688184610d92565b905092915050565b61117981610c49565b82525050565b60006020820190506111946000830184611170565b92915050565b7f416363657373206e6f74206772616e7465642e00000000000000000000000000600082015250565b60006111d0601383610d46565b91506111db8261119a565b602082019050919050565b600060208201905081810360008301526111ff816111c3565b9050919050565b7f506c6561652070726f7669646520612076616c696420616464726573732e0000600082015250565b600061123c601e83610d46565b915061124782611206565b602082019050919050565b6000602082019050818103600083015261126b8161122f565b9050919050565b7f546869732061646472657373206973206e6f7420612076616c6964206d656d6260008201527f6572000000000000000000000000000000000000000000000000000000000000602082015250565b60006112ce602283610d46565b91506112d982611272565b604082019050919050565b600060208201905081810360008301526112fd816112c1565b9050919050565b7f546865206d656d62657220697320616c726561647920696e207468697320737460008201527f6174650000000000000000000000000000000000000000000000000000000000602082015250565b6000611360602383610d46565b915061136b82611304565b604082019050919050565b6000602082019050818103600083015261138f81611353565b9050919050565b60006060820190506113ab6000830186611170565b6113b86020830185610d2c565b6113c56040830184610beb565b949350505050565b7f4e487b7100000000000000000000000000000000000000000000000000000000600052602260045260246000fd5b6000600282049050600182168061141457607f821691505b602082108103611427576114266113cd565b5b50919050565b7f506c656173652070726f7669646520612076616c696420616464726573732e00600082015250565b6000611463601f83610d46565b915061146e8261142d565b602082019050919050565b6000602082019050818103600083015261149281611456565b9050919050565b7f4e487b7100000000000000000000000000000000000000000000000000000000600052603260045260246000fd5b60008190508160005260206000209050919050565b60006020601f8301049050919050565b600082821b905092915050565b60006008830261152a7fffffffffffffffffffffffffffffffffffffffffffffffffffffffffffffffff826114ed565b61153486836114ed565b95508019841693508086168417925050509392505050565b6000819050919050565b600061157161156c61156784610be1565b61154c565b610be1565b9050919050565b6000819050919050565b61158b83611556565b61159f61159782611578565b8484546114fa565b825550505050565b600090565b6115b46115a7565b6115bf818484611582565b505050565b5b818110156115e3576115d86000826115ac565b6001810190506115c5565b5050565b601f821115611628576115f9816114c8565b611602846114dd565b81016020851015611611578190505b61162561161d856114dd565b8301826115c4565b50505b505050565b600082821c905092915050565b600061164b6000198460080261162d565b1980831691505092915050565b6000611664838361163a565b9150826002028217905092915050565b61167d82610d3b565b67ffffffffffffffff81111561169657611695610e7f565b5b6116a082546113fc565b6116ab8282856115e7565b600060209050601f8311600181146116de57600084156116cc578287015190505b6116d68582611658565b86555061173e565b601f1984166116ec866114c8565b60005b82811015611714578489015182556001820191506020850194506020810190506116ef565b86831015611731578489015161172d601f89168261163a565b8355505b6001600288020188555050505b505050505050565b7f4e487b7100000000000000000000000000000000000000000000000000000000600052601160045260246000fd5b600061178082610be1565b91507fffffffffffffffffffffffffffffffffffffffffffffffffffffffffffffffff82036117b2576117b1611746565b5b600182019050919050565b600081546117ca816113fc565b6117d48186610d46565b945060018216600081146117ef576001811461180557611838565b60ff198316865281151560200286019350611838565b61180e856114c8565b60005b8381101561183057815481890152600182019150602081019050611811565b808801955050505b50505092915050565b60006060820190506118566000830186611170565b6118636020830185610beb565b818103604083015261187581846117bd565b9050949350505050565b7f546865206e616d6520666f722074686520726f6c652063616e6e6f742062652060008201527f626c616e6b000000000000000000000000000000000000000000000000000000602082015250565b60006118db602583610d46565b91506118e68261187f565b604082019050919050565b6000602082019050818103600083015261190a816118ce565b905091905056fea26469706673582212200187ff4b3a3c77b92b92295e359a5dcd51559d02fdeaf79107a813b24551125264736f6c63430008110033",
  "linkReferences": {},
  "deployedLinkReferences": {}
}